{
    "contractName": "Emblem",
    "abi": [
        {
            "constant": true,
            "inputs": [],
            "name": "name",
            "outputs": [
                {
                    "name": "",
                    "type": "string"
                }
            ],
            "payable": false,
            "stateMutability": "view",
            "type": "function"
        },
        {
            "constant": true,
            "inputs": [],
            "name": "totalSupply",
            "outputs": [
                {
                    "name": "",
                    "type": "uint256"
                }
            ],
            "payable": false,
            "stateMutability": "view",
            "type": "function"
        },
        {
            "constant": true,
            "inputs": [
                {
                    "name": "",
                    "type": "address"
                },
                {
                    "name": "",
                    "type": "uint256"
                }
            ],
            "name": "ownedVanities",
            "outputs": [
                {
                    "name": "",
                    "type": "bytes12"
                }
            ],
            "payable": false,
            "stateMutability": "view",
            "type": "function"
        },
        {
            "constant": true,
            "inputs": [],
            "name": "decimals",
            "outputs": [
                {
                    "name": "",
                    "type": "uint8"
                }
            ],
            "payable": false,
            "stateMutability": "view",
            "type": "function"
        },
        {
            "constant": true,
            "inputs": [
                {
                    "name": "",
                    "type": "bytes12"
                }
            ],
            "name": "vanityAddresses",
            "outputs": [
                {
                    "name": "",
                    "type": "address"
                }
            ],
            "payable": false,
            "stateMutability": "view",
            "type": "function"
        },
        {
            "constant": true,
            "inputs": [
                {
                    "name": "_owner",
                    "type": "address"
                }
            ],
            "name": "balanceOf",
            "outputs": [
                {
                    "name": "",
                    "type": "uint256"
                }
            ],
            "payable": false,
            "stateMutability": "view",
            "type": "function"
        },
        {
            "constant": false,
            "inputs": [],
            "name": "renounceOwnership",
            "outputs": [],
            "payable": false,
            "stateMutability": "nonpayable",
            "type": "function"
        },
        {
            "constant": true,
            "inputs": [
                {
                    "name": "",
                    "type": "address"
                },
                {
                    "name": "",
                    "type": "bytes12"
                }
            ],
            "name": "ownedVanitiesIndex",
            "outputs": [
                {
                    "name": "",
                    "type": "uint256"
                }
            ],
            "payable": false,
            "stateMutability": "view",
            "type": "function"
        },
        {
            "constant": true,
            "inputs": [],
            "name": "owner",
            "outputs": [
                {
                    "name": "",
                    "type": "address"
                }
            ],
            "payable": false,
            "stateMutability": "view",
            "type": "function"
        },
        {
            "constant": true,
            "inputs": [],
            "name": "symbol",
            "outputs": [
                {
                    "name": "",
                    "type": "string"
                }
            ],
            "payable": false,
            "stateMutability": "view",
            "type": "function"
        },
        {
            "constant": true,
            "inputs": [],
            "name": "completeFreeze",
            "outputs": [
                {
                    "name": "",
                    "type": "bool"
                }
            ],
            "payable": false,
            "stateMutability": "view",
            "type": "function"
        },
        {
            "constant": false,
            "inputs": [
                {
                    "name": "_spender",
                    "type": "address"
                },
                {
                    "name": "_addedValue",
                    "type": "uint256"
                }
            ],
            "name": "increaseApproval",
            "outputs": [
                {
                    "name": "",
                    "type": "bool"
                }
            ],
            "payable": false,
            "stateMutability": "nonpayable",
            "type": "function"
        },
        {
            "constant": true,
            "inputs": [
                {
                    "name": "_owner",
                    "type": "address"
                },
                {
                    "name": "_spender",
                    "type": "address"
                }
            ],
            "name": "allowance",
            "outputs": [
                {
                    "name": "",
                    "type": "uint256"
                }
            ],
            "payable": false,
            "stateMutability": "view",
            "type": "function"
        },
        {
            "constant": true,
            "inputs": [
                {
                    "name": "",
                    "type": "uint256"
                }
            ],
            "name": "allVanities",
            "outputs": [
                {
                    "name": "",
                    "type": "bytes12"
                }
            ],
            "payable": false,
            "stateMutability": "view",
            "type": "function"
        },
        {
            "constant": false,
            "inputs": [
                {
                    "name": "_newOwner",
                    "type": "address"
                }
            ],
            "name": "transferOwnership",
            "outputs": [],
            "payable": false,
            "stateMutability": "nonpayable",
            "type": "function"
        },
        {
            "inputs": [
                {
                    "name": "_name",
                    "type": "string"
                },
                {
                    "name": "_ticker",
                    "type": "string"
                },
                {
                    "name": "_decimal",
                    "type": "uint8"
                },
                {
                    "name": "_supply",
                    "type": "uint256"
                },
                {
                    "name": "_wallet",
                    "type": "address"
                },
                {
                    "name": "_lemb",
                    "type": "address"
                }
            ],
            "payable": false,
            "stateMutability": "nonpayable",
            "type": "constructor"
        },
        {
            "anonymous": false,
            "inputs": [
                {
                    "indexed": false,
                    "name": "from",
                    "type": "address"
                },
                {
                    "indexed": false,
                    "name": "to",
                    "type": "address"
                },
                {
                    "indexed": false,
                    "name": "vanity",
                    "type": "bytes12"
                }
            ],
            "name": "TransferVanity",
            "type": "event"
        },
        {
            "anonymous": false,
            "inputs": [
                {
                    "indexed": false,
                    "name": "from",
                    "type": "address"
                },
                {
                    "indexed": false,
                    "name": "to",
                    "type": "address"
                },
                {
                    "indexed": false,
                    "name": "vanity",
                    "type": "bytes12"
                }
            ],
            "name": "ApprovedVanity",
            "type": "event"
        },
        {
            "anonymous": false,
            "inputs": [
                {
                    "indexed": false,
                    "name": "from",
                    "type": "address"
                },
                {
                    "indexed": false,
                    "name": "vanity",
                    "type": "bytes12"
                }
            ],
            "name": "VanityPurchased",
            "type": "event"
        },
        {
            "anonymous": false,
            "inputs": [
                {
                    "indexed": true,
                    "name": "previousOwner",
                    "type": "address"
                }
            ],
            "name": "OwnershipRenounced",
            "type": "event"
        },
        {
            "anonymous": false,
            "inputs": [
                {
                    "indexed": true,
                    "name": "previousOwner",
                    "type": "address"
                },
                {
                    "indexed": true,
                    "name": "newOwner",
                    "type": "address"
                }
            ],
            "name": "OwnershipTransferred",
            "type": "event"
        },
        {
            "anonymous": false,
            "inputs": [
                {
                    "indexed": true,
                    "name": "owner",
                    "type": "address"
                },
                {
                    "indexed": true,
                    "name": "spender",
                    "type": "address"
                },
                {
                    "indexed": false,
                    "name": "value",
                    "type": "uint256"
                }
            ],
            "name": "Approval",
            "type": "event"
        },
        {
            "anonymous": false,
            "inputs": [
                {
                    "indexed": true,
                    "name": "from",
                    "type": "address"
                },
                {
                    "indexed": true,
                    "name": "to",
                    "type": "address"
                },
                {
                    "indexed": false,
                    "name": "value",
                    "type": "uint256"
                }
            ],
            "name": "Transfer",
            "type": "event"
        },
        {
            "constant": false,
            "inputs": [
                {
                    "name": "_leaseExchange",
                    "type": "address"
                }
            ],
            "name": "setLeaseExchange",
            "outputs": [],
            "payable": false,
            "stateMutability": "nonpayable",
            "type": "function"
        },
        {
            "constant": false,
            "inputs": [
                {
                    "name": "cost",
                    "type": "uint256"
                }
            ],
            "name": "setVanityPurchaseCost",
            "outputs": [],
            "payable": false,
            "stateMutability": "nonpayable",
            "type": "function"
        },
        {
            "constant": false,
            "inputs": [
                {
                    "name": "enabled",
                    "type": "bool"
                }
            ],
            "name": "enableFees",
            "outputs": [],
            "payable": false,
            "stateMutability": "nonpayable",
            "type": "function"
        },
        {
            "constant": false,
            "inputs": [
                {
                    "name": "_lemb",
                    "type": "address"
                }
            ],
            "name": "setLEMB",
            "outputs": [],
            "payable": false,
            "stateMutability": "nonpayable",
            "type": "function"
        },
        {
            "constant": false,
            "inputs": [
                {
                    "name": "vanity",
                    "type": "bytes12"
                },
                {
                    "name": "fee",
                    "type": "uint256"
                }
            ],
            "name": "setVanityFee",
            "outputs": [],
            "payable": false,
            "stateMutability": "nonpayable",
            "type": "function"
        },
        {
            "constant": true,
            "inputs": [
                {
                    "name": "vanity",
                    "type": "bytes12"
                }
            ],
            "name": "getFee",
            "outputs": [
                {
                    "name": "",
                    "type": "uint256"
                }
            ],
            "payable": false,
            "stateMutability": "view",
            "type": "function"
        },
        {
            "constant": true,
            "inputs": [
                {
                    "name": "vanity",
                    "type": "bytes12"
                }
            ],
            "name": "enabledVanityFee",
            "outputs": [
                {
                    "name": "",
                    "type": "bool"
                }
            ],
            "payable": false,
            "stateMutability": "view",
            "type": "function"
        },
        {
            "constant": false,
            "inputs": [
                {
                    "name": "_ticker",
                    "type": "string"
                }
            ],
            "name": "setTicker",
            "outputs": [],
            "payable": false,
            "stateMutability": "nonpayable",
            "type": "function"
        },
        {
            "constant": false,
            "inputs": [
                {
                    "name": "_value",
                    "type": "uint256"
                }
            ],
            "name": "approveOwner",
            "outputs": [
                {
                    "name": "",
                    "type": "bool"
                }
            ],
            "payable": false,
            "stateMutability": "nonpayable",
            "type": "function"
        },
        {
            "constant": true,
            "inputs": [
                {
                    "name": "_owner",
                    "type": "address"
                },
                {
                    "name": "_vanity",
                    "type": "bytes12"
                },
                {
                    "name": "_spender",
                    "type": "address"
                }
            ],
            "name": "vanityAllowance",
            "outputs": [
                {
                    "name": "",
                    "type": "bool"
                }
            ],
            "payable": false,
            "stateMutability": "view",
            "type": "function"
        },
        {
            "constant": true,
            "inputs": [
                {
                    "name": "_vanity",
                    "type": "bytes12"
                }
            ],
            "name": "getVanityOwner",
            "outputs": [
                {
                    "name": "",
                    "type": "address"
                }
            ],
            "payable": false,
            "stateMutability": "view",
            "type": "function"
        },
        {
            "constant": true,
            "inputs": [],
            "name": "getAllVanities",
            "outputs": [
                {
                    "name": "",
                    "type": "bytes12[]"
                }
            ],
            "payable": false,
            "stateMutability": "view",
            "type": "function"
        },
        {
            "constant": true,
            "inputs": [],
            "name": "getMyVanities",
            "outputs": [
                {
                    "name": "",
                    "type": "bytes12[]"
                }
            ],
            "payable": false,
            "stateMutability": "view",
            "type": "function"
        },
        {
            "constant": false,
            "inputs": [
                {
                    "name": "_spender",
                    "type": "address"
                },
                {
                    "name": "_vanity",
                    "type": "bytes12"
                }
            ],
            "name": "approveVanity",
            "outputs": [
                {
                    "name": "",
                    "type": "bool"
                }
            ],
            "payable": false,
            "stateMutability": "nonpayable",
            "type": "function"
        },
        {
            "constant": false,
            "inputs": [
                {
                    "name": "_vanity",
                    "type": "bytes12"
                }
            ],
            "name": "clearVanityApproval",
            "outputs": [
                {
                    "name": "",
                    "type": "bool"
                }
            ],
            "payable": false,
            "stateMutability": "nonpayable",
            "type": "function"
        },
        {
            "constant": false,
            "inputs": [
                {
                    "name": "van",
                    "type": "bytes12"
                },
                {
                    "name": "newOwner",
                    "type": "address"
                }
            ],
            "name": "transferVanity",
            "outputs": [
                {
                    "name": "",
                    "type": "bool"
                }
            ],
            "payable": false,
            "stateMutability": "nonpayable",
            "type": "function"
        },
        {
            "constant": false,
            "inputs": [
                {
                    "name": "_from",
                    "type": "address"
                },
                {
                    "name": "_to",
                    "type": "address"
                },
                {
                    "name": "_vanity",
                    "type": "bytes12"
                }
            ],
            "name": "transferVanityFrom",
            "outputs": [
                {
                    "name": "",
                    "type": "bool"
                }
            ],
            "payable": false,
            "stateMutability": "nonpayable",
            "type": "function"
        },
        {
            "constant": false,
            "inputs": [
                {
                    "name": "van",
                    "type": "bytes12"
                }
            ],
            "name": "purchaseVanity",
            "outputs": [
                {
                    "name": "",
                    "type": "bool"
                }
            ],
            "payable": false,
            "stateMutability": "nonpayable",
            "type": "function"
        },
        {
            "constant": false,
            "inputs": [
                {
                    "name": "_freeze",
                    "type": "bool"
                }
            ],
            "name": "freezeTransfers",
            "outputs": [],
            "payable": false,
            "stateMutability": "nonpayable",
            "type": "function"
        },
        {
            "constant": false,
            "inputs": [
                {
                    "name": "_to",
                    "type": "address"
                },
                {
                    "name": "_value",
                    "type": "uint256"
                }
            ],
            "name": "transfer",
            "outputs": [
                {
                    "name": "",
                    "type": "bool"
                }
            ],
            "payable": false,
            "stateMutability": "nonpayable",
            "type": "function"
        },
        {
            "constant": false,
            "inputs": [
                {
                    "name": "_from",
                    "type": "address"
                },
                {
                    "name": "_to",
                    "type": "address"
                },
                {
                    "name": "_value",
                    "type": "uint256"
                }
            ],
            "name": "transferFrom",
            "outputs": [
                {
                    "name": "",
                    "type": "bool"
                }
            ],
            "payable": false,
            "stateMutability": "nonpayable",
            "type": "function"
        },
        {
            "constant": false,
            "inputs": [
                {
                    "name": "_spender",
                    "type": "address"
                },
                {
                    "name": "_subtractedValue",
                    "type": "uint256"
                }
            ],
            "name": "decreaseApproval",
            "outputs": [
                {
                    "name": "",
                    "type": "bool"
                }
            ],
            "payable": false,
            "stateMutability": "nonpayable",
            "type": "function"
        },
        {
            "constant": false,
            "inputs": [
                {
                    "name": "_spender",
                    "type": "address"
                },
                {
                    "name": "_value",
                    "type": "uint256"
                }
            ],
            "name": "approve",
            "outputs": [
                {
                    "name": "",
                    "type": "bool"
                }
            ],
            "payable": false,
            "stateMutability": "nonpayable",
            "type": "function"
        }
    ],
    "bytecode": "0x6080604052600f805460ff199081166001179091556402540be4006010556011805490911690553480156200003357600080fd5b506040516200224a3803806200224a8339810160409081528151602080840151928401516060850151608086015160a08701519487018051909796909601959294919390928791879187916200008f9160009186019062000109565b508151620000a590600190602085019062000109565b506002805460ff191660ff9290921691909117905550506006805433600160a060020a0319918216179091556004849055600160a060020a0392831660009081526003602052604090209390935560128054909316911617905550620001ae915050565b828054600181600116156101000203166002900490600052602060002090601f016020900481019282601f106200014c57805160ff19168380011785556200017c565b828001600101855582156200017c579182015b828111156200017c5782518255916020019190600101906200015f565b506200018a9291506200018e565b5090565b620001ab91905b808211156200018a576000815560010162000195565b90565b61208c80620001be6000396000f3006080604052600436106101d75763ffffffff7c010000000000000000000000000000000000000000000000000000000060003504166306fdde0381146101dc578063095ea7b3146102665780630c5cc0a21461029e57806316166f89146102dc57806318160ddd1461031057806323b872dd1461032557806324304f8b1461034f578063259e488d146103aa578063261ea7a4146103cb578063267d9074146103f057806329bf81e4146104085780632bf5eabb146104495780632c83e86f14610463578063313ce567146104845780633618bdab146104af5780633bd86d2d1461051457806350b040851461054957806360f39d181461056157806366188463146105835780636a04c381146105a757806370a08231146105d5578063715018a6146105f65780637beea4bf1461060b5780637f6f3d79146106205780638da5cb5b1461064e5780638eacf7131461066357806395d89b4114610691578063a9059cbb146106a6578063b51ec3bb146106ca578063b7fe896a146106df578063ba5011fa14610701578063cdc0613c14610723578063ce086ec11461073d578063d73dd62314610771578063dd62ed3e14610795578063e2af4cad146107bc578063e5014b8c146107de578063f2fde38b146107f6575b600080fd5b3480156101e857600080fd5b506101f1610817565b6040805160208082528351818301528351919283929083019185019080838360005b8381101561022b578181015183820152602001610213565b50505050905090810190601f1680156102585780820380516001836020036101000a031916815260200191505b509250505060405180910390f35b34801561027257600080fd5b5061028a600160a060020a03600435166024356108a5565b604080519115158252519081900360200190f35b3480156102aa57600080fd5b506102c0600160a060020a0319600435166109c8565b60408051600160a060020a039092168252519081900360200190f35b3480156102e857600080fd5b506102fe600160a060020a0319600435166109ed565b60408051918252519081900360200190f35b34801561031c57600080fd5b506102fe610a09565b34801561033157600080fd5b5061028a600160a060020a0360043581169060243516604435610a10565b34801561035b57600080fd5b506040805160206004803580820135601f81018490048402850184019095528484526103a8943694929360249392840191908190840183828082843750949750610a629650505050505050565b005b3480156103b657600080fd5b506103a8600160a060020a0360043516610a90565b3480156103d757600080fd5b506103a8600160a060020a031960043516602435610ac9565b3480156103fc57600080fd5b5061028a600435610b0b565b34801561041457600080fd5b5061042c600160a060020a0360043516602435610b46565b60408051600160a060020a03199092168252519081900360200190f35b34801561045557600080fd5b506103a86004351515610b8e565b34801561046f57600080fd5b506103a8600160a060020a0360043516610bb8565b34801561049057600080fd5b50610499610c04565b6040805160ff9092168252519081900360200190f35b3480156104bb57600080fd5b506104c4610c0d565b60408051602080825283518183015283519192839290830191858101910280838360005b838110156105005781810151838201526020016104e8565b505050509050019250505060405180910390f35b34801561052057600080fd5b5061028a600160a060020a03600435811690600160a060020a0319602435169060443516610c95565b34801561055557600080fd5b506103a8600435610cd1565b34801561056d57600080fd5b506102c0600160a060020a031960043516610ced565b34801561058f57600080fd5b5061028a600160a060020a0360043516602435610d08565b3480156105b357600080fd5b5061028a600160a060020a0360043516600160a060020a031960243516610e08565b3480156105e157600080fd5b506102fe600160a060020a0360043516610eb4565b34801561060257600080fd5b506103a8610ecf565b34801561061757600080fd5b506104c4610f30565b34801561062c57600080fd5b506102fe600160a060020a0360043516600160a060020a031960243516610fa0565b34801561065a57600080fd5b506102c0610fbd565b34801561066f57600080fd5b5061028a600160a060020a031960043516602435600160a060020a0316610fcc565b34801561069d57600080fd5b506101f16112c6565b3480156106b257600080fd5b5061028a600160a060020a0360043516602435611320565b3480156106d657600080fd5b5061028a611341565b3480156106eb57600080fd5b5061028a600160a060020a03196004351661134a565b34801561070d57600080fd5b5061028a600160a060020a03196004351661137b565b34801561072f57600080fd5b506103a860043515156115d2565b34801561074957600080fd5b5061028a600160a060020a0360043581169060243516600160a060020a0319604435166115fc565b34801561077d57600080fd5b5061028a600160a060020a0360043516602435611971565b3480156107a157600080fd5b506102fe600160a060020a0360043581169060243516611a0a565b3480156107c857600080fd5b5061028a600160a060020a031960043516611a35565b3480156107ea57600080fd5b5061042c600435611a95565b34801561080257600080fd5b506103a8600160a060020a0360043516611acd565b6000805460408051602060026001851615610100026000190190941693909304601f8101849004840282018401909252818152929183018282801561089d5780601f106108725761010080835404028352916020019161089d565b820191906000526020600020905b81548152906001019060200180831161088057829003601f168201915b505050505081565b601154600090600160a060020a0384811661010090920416141561096157601254604080517f04426db40000000000000000000000000000000000000000000000000000000081523360048201529051600160a060020a03909216916304426db4916024808201926020929091908290030181600087803b15801561092957600080fd5b505af115801561093d573d6000803e3d6000fd5b505050506040513d602081101561095357600080fd5b505182101561096157600080fd5b336000818152600560209081526040808320600160a060020a03881680855290835292819020869055805186815290519293927f8c5be1e5ebec7d5bd14f71427d1e84f3dd0314c0f7b2291e5b200ac8c7c3b925929181900390910190a350600192915050565b600160a060020a031916600090815260076020526040902054600160a060020a031690565b600160a060020a0319166000908152600d602052604090205490565b6004545b90565b60115460009060ff1615610a2357600080fd5b6011546101009004600160a060020a03163314610a4f57610a448483611af0565b1515610a4f57600080fd5b610a5a848484611bb3565b509392505050565b600654600160a060020a03163314610a7957600080fd5b8051610a8c906001906020840190611f8f565b5050565b600654600160a060020a03163314610aa757600080fd5b60128054600160a060020a031916600160a060020a0392909216919091179055565b600654600160a060020a03163314610ae057600080fd5b6000811015610aee57600080fd5b600160a060020a03199091166000908152600d6020526040902055565b600654600090600160a060020a03163314610b2557600080fd5b50336000908152600560209081526040808320308452909152902055600190565b600860205281600052604060002081815481101515610b6157fe5b9060005260206000209060029182820401919006600c02915091509054906101000a900460a060020a0281565b600654600160a060020a03163314610ba557600080fd5b600f805460ff1916911515919091179055565b600654600160a060020a03163314610bcf57600080fd5b60118054600160a060020a039092166101000274ffffffffffffffffffffffffffffffffffffffff0019909216919091179055565b60025460ff1681565b6060600b805480602002602001604051908101604052809291908181526020018280548015610c8b57602002820191906000526020600020906000905b82829054906101000a900460a060020a02600160a060020a031916815260200190600c0190602082600b01049283019260010382029150808411610c4a5790505b5050505050905090565b600160a060020a038381166000908152600c60209081526040808320600160a060020a0319871684529091529020548116908216149392505050565b600654600160a060020a03163314610ce857600080fd5b601055565b600760205260009081526040902054600160a060020a031681565b601154600090600160a060020a03848116610100909204161415610df757601254604080517f04426db40000000000000000000000000000000000000000000000000000000081523360048201529051600160a060020a03909216916304426db4916024808201926020929091908290030181600087803b158015610d8c57600080fd5b505af1158015610da0573d6000803e3d6000fd5b505050506040513d6020811015610db657600080fd5b5051336000908152600560209081526040808320600160a060020a0388168452909152902054610dec908463ffffffff611d2c16565b1015610df757600080fd5b610e018383611d3e565b5092915050565b600160a060020a03198116600090815260076020526040812054600160a060020a03163314610e3657600080fd5b336000818152600c60209081526040808320600160a060020a0319808816808652918452938290208054600160a060020a038a1695168517905581519485529184019290925282820152517f9882ce26ee4b9d7f9cc08c2c2101323228f2412036c7a3a050c200eede86276c9181900360600190a150600192915050565b600160a060020a031660009081526003602052604090205490565b600654600160a060020a03163314610ee657600080fd5b600654604051600160a060020a03909116907ff8df31144d9c2f0f6b59d69b8b98abd5459d07f2742c4df920b25aae33c6482090600090a260068054600160a060020a0319169055565b33600090815260086020908152604091829020805483518184028101840190945280845260609392830182828015610c8b576000918252602091829020805460a060020a02600160a060020a03191684529082028301929091600c9101808411610c4a5790505050505050905090565b600960209081526000928352604080842090915290825290205481565b600654600160a060020a031681565b6000808080600160a060020a0385161515610fe657600080fd5b600160a060020a03198616600090815260076020526040902054600160a060020a0316331461101457600080fd5b600160a060020a031980871660009081526007602090815260408083208054600160a060020a038b169516851790558383526008825282208054600181810183558285529284206002820401805460a060020a8d04600c938616939093026101000a9283026bffffffffffffffffffffffff90930219169190911790559290915290546110a69163ffffffff611d2c16565b600160a060020a0386166000908152600960208181526040808420600160a060020a03198c16808652908352818520959095553380855292825280842094845293815283832054918352600890529190205490935061110c90600163ffffffff611d2c16565b3360009081526008602052604090208054919350908390811061112b57fe5b600091825260208083206002830401543384526008909152604090922080546001909216600c026101000a90920460a060020a0292508291908590811061116e57fe5b9060005260206000209060029182820401919006600c026101000a8154816bffffffffffffffffffffffff021916908360a060020a9004021790555060006008600033600160a060020a0316600160a060020a03168152602001908152602001600020838154811015156111de57fe5b60009182526020808320600283040180546bffffffffffffffffffffffff6001909416600c026101000a938402191660a060020a9095049290920293909317905533815260089091526040902080549061123c90600019830161200d565b50336000818152600960209081526040808320600160a060020a03198b811680865291845282852085905586168452928190208790558051938452600160a060020a0389169184019190915282810191909152517feaeb5d0421f302fc4986a95aad8ad429bc6fed08dfda4ca1e8ed110fb7f129d89181900360600190a150600195945050505050565b60018054604080516020600284861615610100026000190190941693909304601f8101849004840282018401909252818152929183018282801561089d5780601f106108725761010080835404028352916020019161089d565b600061132c3383611af0565b151561133757600080fd5b610e018383611e2e565b60115460ff1681565b600160a060020a031981166000908152600e602052604081205460ff1680156113755750600f5460ff165b92915050565b600160a060020a03198116600090815260076020526040812054600160a060020a0316156113a857600080fd5b6113b433601054611af0565b15156113bf57600080fd5b601054336000908152600360205260409020546113e19163ffffffff611d2c16565b33600090815260036020526040808220929092556010543082529190205461140e9163ffffffff611f1116565b306000818152600360209081526040918290209390935560105481519081529051919233927fddf252ad1be2c89b69c2b068fc378daa952ba7f163c4a11628f55a4df523b3ef9281900390910190a3600160a060020a03198281166000908152600760209081526040808320805433951685179055838352600882528220805460018181018355828552928420600282040180546bffffffffffffffffffffffff928516600c026101000a928302191660a060020a8904929092029190911790559290915290546114de91611d2c565b336000908152600960209081526040808320600160a060020a031987168452909152812091909155600b805460018082018355928290527f0175b7a638427703f0dbe7bb9bbf987a2551717b34e79f33b5b1008d1fa01db9600282040180546bffffffffffffffffffffffff928516600c026101000a928302191660a060020a8704929092029190911790555461157491611d2c565b600160a060020a031983166000818152600a60209081526040918290209390935580513381529283019190915280517f6828c0068cad8973e4a3a23e513d4f8842302b74ed927230e9523febaf4a22bc9281900390910190a1919050565b600654600160a060020a031633146115e957600080fd5b6011805460ff1916911515919091179055565b6000808080600160a060020a038616151561161657600080fd5b600160a060020a03198516600090815260076020526040902054600160a060020a0388811691161461164757600080fd5b600160a060020a038781166000908152600c60209081526040808320600160a060020a03198a16845290915290205416331461168257600080fd5b600160a060020a031980861660009081526007602090815260408083208054600160a060020a038c169516851790558383526008825282208054600181810183558285529284206002820401805460a060020a8c04600c938616939093026101000a9283026bffffffffffffffffffffffff90930219169190911790559290915290546117149163ffffffff611d2c16565b600160a060020a038088166000908152600960208181526040808420600160a060020a03198c1680865290835281852096909655938c16808452918152838320948352938452828220549082526008909352205490935061177c90600163ffffffff611d2c16565b600160a060020a0388166000908152600860205260409020805491935090839081106117a457fe5b9060005260206000209060029182820401919006600c029054906101000a900460a060020a029050806008600089600160a060020a0316600160a060020a03168152602001908152602001600020848154811015156117ff57fe5b9060005260206000209060029182820401919006600c026101000a8154816bffffffffffffffffffffffff021916908360a060020a9004021790555060006008600089600160a060020a0316600160a060020a031681526020019081526020016000208381548110151561186f57fe5b9060005260206000209060029182820401919006600c026101000a8154816bffffffffffffffffffffffff021916908360a060020a900402179055506008600088600160a060020a0316600160a060020a031681526020019081526020016000208054809190600190036118e3919061200d565b50600160a060020a038781166000908152600960209081526040808320600160a060020a03198a811680865291845282852085905586168452928190208790558051338152938a169184019190915282810191909152517feaeb5d0421f302fc4986a95aad8ad429bc6fed08dfda4ca1e8ed110fb7f129d89181900360600190a15060019695505050505050565b336000908152600560209081526040808320600160a060020a03861684529091528120546119a5908363ffffffff611f1116565b336000818152600560209081526040808320600160a060020a0389168085529083529281902085905580519485525191937f8c5be1e5ebec7d5bd14f71427d1e84f3dd0314c0f7b2291e5b200ac8c7c3b925929081900390910190a350600192915050565b600160a060020a03918216600090815260056020908152604080832093909416825291909152205490565b600160a060020a03198116600090815260076020526040812054600160a060020a03163314611a6357600080fd5b50336000908152600c60209081526040808320600160a060020a03199485168452909152902080549091169055600190565b600b805482908110611aa357fe5b9060005260206000209060029182820401919006600c02915054906101000a900460a060020a0281565b600654600160a060020a03163314611ae457600080fd5b611aed81611f1e565b50565b60115460009060ff16158015611bac5750600160a060020a0380841660008181526003602090815260408083205460125482517f04426db400000000000000000000000000000000000000000000000000000000815260048101969096529151909591909116936304426db49360248083019493928390030190829087803b158015611b7b57600080fd5b505af1158015611b8f573d6000803e3d6000fd5b505050506040513d6020811015611ba557600080fd5b5051830111155b9392505050565b6000600160a060020a0383161515611bca57600080fd5b600160a060020a038416600090815260036020526040902054821115611bef57600080fd5b600160a060020a0384166000908152600560209081526040808320338452909152902054821115611c1f57600080fd5b600160a060020a038416600090815260036020526040902054611c48908363ffffffff611d2c16565b600160a060020a038086166000908152600360205260408082209390935590851681522054611c7d908363ffffffff611f1116565b600160a060020a038085166000908152600360209081526040808320949094559187168152600582528281203382529091522054611cc1908363ffffffff611d2c16565b600160a060020a03808616600081815260056020908152604080832033845282529182902094909455805186815290519287169391927fddf252ad1be2c89b69c2b068fc378daa952ba7f163c4a11628f55a4df523b3ef929181900390910190a35060019392505050565b600082821115611d3857fe5b50900390565b336000908152600560209081526040808320600160a060020a038616845290915281205480831115611d9357336000908152600560209081526040808320600160a060020a0388168452909152812055611dc8565b611da3818463ffffffff611d2c16565b336000908152600560209081526040808320600160a060020a03891684529091529020555b336000818152600560209081526040808320600160a060020a0389168085529083529281902054815190815290519293927f8c5be1e5ebec7d5bd14f71427d1e84f3dd0314c0f7b2291e5b200ac8c7c3b925929181900390910190a35060019392505050565b6000600160a060020a0383161515611e4557600080fd5b33600090815260036020526040902054821115611e6157600080fd5b33600090815260036020526040902054611e81908363ffffffff611d2c16565b3360009081526003602052604080822092909255600160a060020a03851681522054611eb3908363ffffffff611f1116565b600160a060020a0384166000818152600360209081526040918290209390935580518581529051919233927fddf252ad1be2c89b69c2b068fc378daa952ba7f163c4a11628f55a4df523b3ef9281900390910190a350600192915050565b8181018281101561137557fe5b600160a060020a0381161515611f3357600080fd5b600654604051600160a060020a038084169216907f8be0079c531659141344cd1fd0a4f28419497f9722a3daafe3b4186f6b6457e090600090a360068054600160a060020a031916600160a060020a0392909216919091179055565b828054600181600116156101000203166002900490600052602060002090601f016020900481019282601f10611fd057805160ff1916838001178555611ffd565b82800160010185558215611ffd579182015b82811115611ffd578251825591602001919060010190611fe2565b50612009929150612046565b5090565b8154818355818111156120415760010160029004816001016002900483600052602060002091820191016120419190612046565b505050565b610a0d91905b80821115612009576000815560010161204c5600a165627a7a723058205672c293a21e86328318c83c614f08828c5b151f59f3374c64cd48f2550d74a30029",
    "source": "pragma solidity ^0.4.24;\n\nimport \"openzeppelin-solidity/contracts/token/ERC20/StandardToken.sol\";\nimport \"openzeppelin-solidity/contracts/token/ERC20/DetailedERC20.sol\";\nimport \"openzeppelin-solidity/contracts/math/SafeMath.sol\";\nimport \"openzeppelin-solidity/contracts/ownership/Ownable.sol\";\nimport \"./LeasedEmblem.sol\";\n\ncontract Emblem is DetailedERC20, StandardToken, Ownable {\n  using SafeMath for uint256;\n\n   mapping (bytes12 => address) public vanityAddresses;\n   mapping (address => bytes12[]) public ownedVanities;\n   mapping (address => mapping(bytes12 => uint256)) public ownedVanitiesIndex;\n   mapping (bytes12 => uint256) allVanitiesIndex;\n   bytes12[] public allVanities;\n   mapping (address => mapping (bytes12 => address)) internal allowedVanities;\n\n   mapping (bytes12 => uint256) vanityFees;\n   mapping (bytes12 => bool) vanityFeeEnabled;\n   bool internal useVanityFees = true;\n\n   uint256 internal vanityPurchaseCost = 100 * (10 ** 8);\n\n   bool public completeFreeze = false;\n\n   address leaseExchange;\n   LeasedEmblem LEMB;\n\n   event TransferVanity(address from, address to, bytes12 vanity);\n   event ApprovedVanity(address from, address to, bytes12 vanity);\n   event VanityPurchased(address from, bytes12 vanity);\n\n   constructor(string _name, string _ticker, uint8 _decimal, uint256 _supply, address _wallet, address _lemb) DetailedERC20(_name, _ticker, _decimal) public {\n     totalSupply_ = _supply;\n     balances[_wallet] = _supply;\n     LEMB = LeasedEmblem(_lemb);\n   }\n\n   //set the lease Exchange\n   function setLeaseExchange(address _leaseExchange) public onlyOwner {\n     leaseExchange = _leaseExchange;\n   }\n\n   function setVanityPurchaseCost(uint256 cost) public onlyOwner {\n     vanityPurchaseCost = cost;\n   }\n\n   function enableFees(bool enabled) public onlyOwner {\n     useVanityFees = enabled;\n   }\n\n   function setLEMB(address _lemb) public onlyOwner {\n     LEMB = LeasedEmblem(_lemb);\n   }\n\n   function setVanityFee(bytes12 vanity, uint256 fee) public onlyOwner {\n     require(fee >= 0);\n     vanityFees[vanity] = fee;\n   }\n\n   function getFee(bytes12 vanity) public view returns(uint256) {\n     return vanityFees[vanity];\n   }\n\n   function enabledVanityFee(bytes12 vanity) public view returns(bool) {\n     return vanityFeeEnabled[vanity] && useVanityFees;\n   }\n\n   //set the ticker (EMB)\n   function setTicker(string _ticker) public onlyOwner {\n     symbol = _ticker;\n   }\n\n   //give approval to transfer from the contract's address\n   function approveOwner(uint256 _value) public onlyOwner returns (bool) {\n     allowed[msg.sender][address(this)] = _value;\n     return true;\n   }\n\n   function vanityAllowance(address _owner, bytes12 _vanity, address _spender) public view returns (bool) {\n     return allowedVanities[_owner][_vanity] == _spender;\n   }\n\n   function getVanityOwner(bytes12 _vanity) public view returns (address) {\n     return vanityAddresses[_vanity];\n   }\n\n   function getAllVanities() public view returns (bytes12[]){\n     return allVanities;\n   }\n\n   function getMyVanities() public view returns (bytes12[]){\n     return ownedVanities[msg.sender];\n   }\n\n   function approveVanity(address _spender, bytes12 _vanity) public returns (bool) {\n     require(vanityAddresses[_vanity] == msg.sender);\n     allowedVanities[msg.sender][_vanity] = _spender;\n\n     emit ApprovedVanity(msg.sender, _spender, _vanity);\n     return true;\n   }\n\n   function clearVanityApproval(bytes12 _vanity) public returns (bool){\n     require(vanityAddresses[_vanity] == msg.sender);\n     delete allowedVanities[msg.sender][_vanity];\n     return true;\n   }\n\n   function transferVanity(bytes12 van, address newOwner) public returns (bool) {\n     require(newOwner != 0x0);\n     require(vanityAddresses[van] == msg.sender);\n\n     //change ownership\n     vanityAddresses[van] = newOwner;\n     ownedVanities[newOwner].push(van);\n     ownedVanitiesIndex[newOwner][van] = ownedVanities[newOwner].length.sub(1);\n\n     //remove vanity from previous owner's index\n     uint256 vanityIndex = ownedVanitiesIndex[msg.sender][van];\n     uint256 lastVanityIndex = ownedVanities[msg.sender].length.sub(1);\n     bytes12 lastVanity = ownedVanities[msg.sender][lastVanityIndex];\n\n     ownedVanities[msg.sender][vanityIndex] = lastVanity;\n     ownedVanities[msg.sender][lastVanityIndex] = \"\";\n     ownedVanities[msg.sender].length--;\n\n     ownedVanitiesIndex[msg.sender][van] = 0;\n     ownedVanitiesIndex[msg.sender][lastVanity] = vanityIndex;\n\n     emit TransferVanity(msg.sender, newOwner,van);\n\n     return true;\n   }\n\n   function transferVanityFrom(\n     address _from,\n     address _to,\n     bytes12 _vanity\n   )\n     public\n     returns (bool)\n   {\n     require(_to != address(0));\n     require(_from == vanityAddresses[_vanity]);\n     require(msg.sender == allowedVanities[_from][_vanity]);\n\n     //change ownership\n     vanityAddresses[_vanity] = _to;\n     ownedVanities[_to].push(_vanity);\n     ownedVanitiesIndex[_to][_vanity] = ownedVanities[_to].length.sub(1);\n\n     //remove vanity from previous owner's index\n     uint256 vanityIndex = ownedVanitiesIndex[_from][_vanity];\n     uint256 lastVanityIndex = ownedVanities[_from].length.sub(1);\n     bytes12 lastVanity = ownedVanities[_from][lastVanityIndex];\n\n     ownedVanities[_from][vanityIndex] = lastVanity;\n     ownedVanities[_from][lastVanityIndex] = \"\";\n     ownedVanities[_from].length--;\n\n     ownedVanitiesIndex[_from][_vanity] = 0;\n     ownedVanitiesIndex[_from][lastVanity] = vanityIndex;\n\n     emit TransferVanity(msg.sender, _to,_vanity);\n\n     return true;\n   }\n\n   function purchaseVanity(bytes12 van) public returns (bool) {\n     require(vanityAddresses[van] == address(0));\n     require(canTransfer(msg.sender,vanityPurchaseCost));\n\n     //update balances\n     balances[msg.sender] = balances[msg.sender].sub(vanityPurchaseCost);\n     balances[address(this)] = balances[address(this)].add(vanityPurchaseCost);\n     emit Transfer(msg.sender, address(this), vanityPurchaseCost);\n\n     //update vanities\n     vanityAddresses[van] = msg.sender;\n     ownedVanities[msg.sender].push(van);\n     ownedVanitiesIndex[msg.sender][van] = ownedVanities[msg.sender].length.sub(1);\n     allVanities.push(van);\n     allVanitiesIndex[van] = allVanities.length.sub(1);\n\n     emit VanityPurchased(msg.sender, van);\n   }\n\n   //freeze all transfers\n   function freezeTransfers(bool _freeze) public onlyOwner {\n     completeFreeze = _freeze;\n   }\n\n   //check if there is no complete freeze;\n   //check if the user is currently mining with LEMB if so ensure\n   //that the balance after the transfer >= the approved amount.\n   function canTransfer(address _account,uint256 _value) internal view returns (bool) {\n      return (!completeFreeze && (_value + LEMB.getAmountForUserMining(_account) <= balances[_account]));\n   }\n\n   function transfer(address _to, uint256 _value) public returns (bool){\n      require(canTransfer(msg.sender,_value));\n      super.transfer(_to,_value);\n   }\n\n   function transferFrom(address _from, address _to, uint256 _value) public returns (bool){\n      require(!completeFreeze);\n      if(msg.sender != leaseExchange) require(canTransfer(_from,_value));\n      super.transferFrom(_from,_to,_value);\n   }\n\n   function decreaseApproval(address _spender,uint256 _subtractedValue) public returns (bool) {\n\n     //can only decrease the approval of the lease exchange upto the amount locked in mining\n     if(_spender == leaseExchange) {\n       require(allowed[msg.sender][_spender].sub(_subtractedValue) >= LEMB.getAmountForUserMining(msg.sender));\n     }\n     super.decreaseApproval(_spender,_subtractedValue);\n   }\n\n   function approve(address _spender, uint256 _value) public returns (bool) {\n\n     //can only approve of the lease exchange larger than the amount locked in mining\n     if(_spender == leaseExchange){\n       require(_value >= LEMB.getAmountForUserMining(msg.sender));\n     }\n\n     allowed[msg.sender][_spender] = _value;\n     emit Approval(msg.sender, _spender, _value);\n     return true;\n   }\n\n}\n",
    "sourcePath": "/Users/arjun/Documents/OneDrive/contracts/contracts/Emblem.sol",
    "compiler": {
        "name": "solc",
        "version": "0.4.24+commit.e67f0147.Emscripten.clang"
    },
    "schemaVersion": "2.0.1",
    "updatedAt": "2018-12-02T21:10:52.246Z"
}